:020000040800F2
:10000000682D002075DC05089DD605089FD60508DB
:10001000A1D60508A3D60508A5D60508000000004E
:100020000000000000000000000000008933030809
:10003000A7D605080000000031330308A9D605083B
:10004000CDDC0508D1DC0508D5DC0508D9DC0508C0
:10005000DDDC0508E1DC0508E5DC0508E9DC050870
:10006000EDDC0508C9D60508F1DC0508C1D6050890
:10007000F5DC0508F9DC0508FDDC050801DD0508EF
:10008000CFD6050805DD050809DD05080DDD0508E5
:1000900011DD050815DD050819DD05081DDD05085C
:1000A00021DD050825DD050829DD05082DDD05080C
:1000B00031DD050835DD050839DD05083DDD0508BC
:1000C00041DD050845DD050849DD05084DDD05086C
:1000D00051DD050855DD050859DD05085DDD05081C
:1000E00061DD050865DD050869DD05086DDD0508CC
:1000F00071DD050875DD050879DD05087DDD05087C
:1001000081DD050885DD050889DD05088DDD05082B
:10011000000000000000000091DD050895DD0508E5
:1001200099DD05089DDD0508A1DD0508A5DD0508AB
:10013000F1D60508A9DD0508ADDD0508B1DD050826
:10014000B5DD0508B9DD0508BDDD0508D7D605080C
:10015000C1DD0508DDD60508C5DD0508C9DD0508D2
:10016000CDDD0508D1DD050800000000000000001D
:10017000000000000000000000000000000000007F
:10018000D5DD0508D9DD05080000000000000000ED
:10019000DDDD0508E1DD05080000000000000000CD
:1001A000000000000000000000000000000000004F
:1001B000E5DD05080000000000000000E9DD05089D
:1001C000EDDD050800000000F0F0F0F0F0F0F08048
:1001D00080F00000C0C0C0C0C0C0909000422300AA
:1001E00000A0740000B082007CECEC9000C0A00085
:1001F0000180B000BDECEC60055280000844700046
:1002000004032000000C0001AEA10C607A0F001660
:100210000E600003ED500004D800001E39000F0EE0
:10022000708A01AE90000C003BCB300D10D101D094
:100230007800C000C1D000B404B8600018C83C0009
:10024000000000B400000004A1BCC3000C2A300D63
:1002500000680A300D01E101BCC3000003EE30006C
:100260000E33E0000E11E00005DC306309E902E026
:100270008A0D6A60E101EE00F000AE30B805D3E30C
:100280001CFD3069C0C0C090001C02E70D606C000E
:10029000B500E100F000F000C4007A001E4003E366
:1002A000003E0001C1007E1007C000C6005B001EBA
:1002B000000F000F004C00A703E13E40E4001000D7
:1002C0000180101BC95018CA400381300020000073
:1002D000000C0000000F0000000F0000CFFFFFC067
:1002E000000F0000000F0000000F00002677D10073
:1002F000FFF880F00001F10006A0000D50003E0064
:1003000000980000E20006C0000B60002E00007A9A
:100310000000A3000000000009FF909A00A9E1007E
:100320001EF0000FF0000FF0000FF0000FE1001EB4
:100330009A11B909FF900000FFF000F000F000F002
:1003400000F000F000F000F000F000F019FFB19AAA
:1003500000AAE1001F40001E0000890006D1006DC8
:100360001006D1006D1000FFFFFF000003CFE30077
:100370000CD14E0008400F0000009B00004FF90018
:1003800000001A90000001E01F1001F00CA10AA06B
:1003900001AFFA1000007F000001DF00000B4F00EA
:1003A000005A0F0001E10F000B600F005C000F000E
:1003B000CFFFFFF000000F0000000F0004FFFF80E0
:1003C000079000000A6000000CCFE9000E601D805D
:1003D000000002E0000000F07A0002E01E702D70C4
:1003E00003CFE800000AB000007D100003E3000026
:1003F0001EEFE800AD202D80E20002E0F00000F0EA
:10040000E20002E08D202D6008EFE700FFFFF8001A
:1004100000E20006C0000D50004E0000B60002E1F0
:10042000000990001E20008B000000003CFE30D62A
:1004300006C0F000F0A707C02EFFB1AA00A9F10086
:100440001EE1001EAA11AA1AFFA1000007EFE80092
:100450007D202D80E20002E0F00000F0E40004E0E6
:100460008D404D8008DEEE100003E300001E6000AA
:1004700000BA0000F00000000080F0000F00000053
:1004800000075AA3000006600018EA202AD81000CE
:10049000F90000004CC60000002AE7100000287098
:1004A000FFFFFF800000000000000000FFFFFF8052
:1004B000A20000006EC40000004BD60000003E8089
:1004C0000029E8104BE60000C50000001CFD30B715
:1004D00007C0F000F00002E0000B50005B0000D20B
:1004E0000000800000800000F00000000047589AE3
:1004F0002008500001C36603ADD71BC01C10DA0CE6
:10050000C07500C60CC0C001F30BB0A108F0756641
:100510003CCC6C80084000019100475889200000C5
:100520000003F30000000ACA0000001E1E100000B5
:10053000690A600000D203D00003C000D3000AFFA4
:10054000FFFA001E10002E106B00000B60D500009B
:1005500006D00000FFFE30F007D0F000F0F000E021
:10056000F008A0FFFF91F0007BF0000FF0007CFF8F
:10057000FFB10000006DFFB4000AC3006E606C00A4
:100580000003C1D400000000F000000000F00000F3
:100590000000D4000000006C000002C10AC3005E2D
:1005A00060006DFFB4000000FFFFE910F0002BE1D8
:1005B000F00000B9F000003DF000000FF000000F67
:1005C000F000003DF00000B8F0002BD1FFFFE81074
:1005D000FFFFF4F00000F00000F00000F00000FF6A
:1005E000FFF4F00000F00000F00000FFFFF4000056
:1005F000FFFFC0F00000F00000F00000F00000FF7E
:10060000FFC0F00000F00000F00000F0000000006B
:10061000006DFFC5000BB2004DA08B00000181D220
:1006200000000000F000000000F000FFFFFEB50039
:1006300000007B4D100001E40AD4005E90006DFFC5
:10064000C5000000F00000F0F00000F0F00000F045
:10065000F00000F0F00000F0FFFFFFF0F00000F00D
:10066000F00000F0F00000F0F00000F0F0F0F0F02A
:10067000F0F0F0F0F0F000000000F00000F00000FA
:10068000F00000F00000F00000F00000F08200F048
:10069000CA06B03CFD300000F0009A00F006D00021
:1006A000F03E1000F1E30000FC600000FD6000007F
:1006B000F1E60000F03E3000F003E300F0006E20B1
:1006C000F00000F00000F00000F00000F00000F08A
:1006D0000000F00000F00000F00000FFFF800000CC
:1006E000FB000000AFFD200002DFF69000086FF174
:1006F000E0000E1FF0A6006A0FF02D00D30FF00CE3
:1007000043C00FF006AA600FF000EE000FF0009952
:10071000000F0000F600000FFE20000FF5D0000FC4
:10072000F0A9000FF01E400FF003E10FF0007C0F66
:10073000F0000C7FF00001EFF000005F008EFE8003
:10074000000CA202BC006B00000B60D3000003D0C1
:10075000F0000000F0F0000000F0D3000003D06BC8
:1007600000000B600CA202AC00008EFE80000000B6
:10077000FFFFB1F000ABF0000FF0001EF002AAFF87
:10078000FEA1F00000F00000F00000F0000000000A
:10079000006DFFD5000009D4004D90004D10000100
:1007A000E400B50000006B00E00000000E00F00067
:1007B00000000F00EDFFD8102E00890028D4B800EB
:1007C0000DA3005FF300008DFFD67DC0FFFFA1F0F9
:1007D00001BAF0002EF0000FF0002EF001B8F0BDCD
:1007E00040F01E20F005C0F000B700003CFC10C631
:1007F00008A0F00260E500003EB400006E60000258
:10080000E0C000F0B707B01CFC1000004FFFFF4035
:10081000000F0000000F0000000F0000000F00009C
:10082000000F0000000F0000000F0000000F00008C
:10083000000F0000F0000FF0000FF0000FF0000FAD
:10084000F0000FF0000FF0000FE1001E9A00A91A4F
:10085000FFA10000C600000C606B00002E001F10FE
:10086000008A000A7000E30005D003E00000E30AFC
:10087000700000990E2000002E6B0000000DE600B5
:10088000000006E000000000E4000C4000B6980004
:100890000F8000E25C004BC003D01F0086D00790A1
:1008A0000D40C2940B500980E0580E1004C4A01CE7
:1008B0003C0000F8600D780000CE2009E400007EC6
:1008C0000005E0007C0001E40D60099003E13E10AA
:1008D0000099D500001EC000002EE10000C5A9004F
:1008E00007C01E301E2006D0B80000C8C60005E0B4
:1008F0006D000C600E403E0006B0A60000E4E00073
:10090000006E8000001F1000000F0000000F0000AC
:10091000000F0000FFFFFF0000008A000002E2005D
:10092000000A8000003E100000C6000004E0000045
:100930000E4000006C000000CFFFFF40FFF4F0000D
:10094000F000F000F000F000F000F000F000F00027
:10095000F000F000FFF40000D400007A00001F1047
:10096000000A600005D00000E200008900002E00AF
:10097000000C500006B00001C10000004FFF000F46
:10098000000F000F000F000F000F000F000F000FEF
:10099000000F000F4FFF000001E800089D001E1A25
:1009A000606A02E0A2009400CCCCCC60B50018B321
:1009B0000011000005DFFA2F5D4004DFD400003F86
:1009C000F000000FD400004F5D4004CF05DFFB2F87
:1009D000F0000000F0000000F0000000F3CFE6009F
:1009E000FC202D50F20002E0F00000F0F20002E0E6
:1009F000FC202D50F4DFE60005DFE8005D201AA0A2
:100A0000D2000071F0000000D20000715D2019A03A
:100A100005DFE9000000000F0000000F0000000FDC
:100A200005DFFA2F5D4004CFD400002FF000000F47
:100A3000D400002F5D4004CF05DFFB2F04BFFB4037
:100A40005D4004D5D200002EFCCCCCCCD2000013EB
:100A50005D4004D404DFFB3004D60E200F00CFC667
:100A60000F000F000F000F000F000F0005DFFB3F0E
:100A70005D4004CFD400003FF000000FE400002FE1
:100A80005D4004BF05DFFB2F5400004B4E6004E4C3
:100A900004BFFB30F00000F00000F00000F6EFB102
:100AA000FA00AAF1001EF0000FF0000FF0000FF0A6
:100AB000000F0000F04000F0F0F0F0F0F0F0000067
:100AC00000F00040000000F000F000F000F000F046
:100AD00000F000F000F004D03D400000F00000F015
:100AE0000000F00000F006A1F0AA00FAA000FD60EE
:100AF00000F1C300F03E30F003D20000F0F0F0F05F
:100B0000F0F0F0F0F0F00000F6EFC19FD2FA008EA6
:100B1000707BF1000F000FF0000F000FF0000F00CE
:100B20000FF0000F000FF0000F000F00F6EFB1FA0A
:100B3000009AF1001FF0000FF0000FF0000FF0001E
:100B40000F00000004BFFB405D4004D5D400004D01
:100B5000F000000FD400004D5D4004D505DFFC40DF
:100B6000F3CFE600FC202D50F20002D0F00000F0A0
:100B7000F20002E0FC202D50F3CFE600F000000070
:100B8000F0000000F000000005DFFB3F5E4004CFF6
:100B9000D400002FF000000FE300002F5D4004CFD1
:100BA00005DFFA2F0000000F0000000F0000000F0B
:100BB000F6E4FA00F100F000F000F000F0000000B0
:100BC00005CD600E11B00D7000019D500002E02EA9
:100BD00001E006CC4000000000F00000F00000F052
:100BE000003CFC6000F00000F00000F00000F000AD
:100BF00000F00000F0000000F0000FF0000FF00027
:100C00000FF0000FF1001FA900AF1BFE6F000000E6
:100C1000D3000B506A002E001E0088000A60E2001C
:100C200004B4B00000EC5000007E0000E30022009D
:100C30003D7700BA00972D01DD00E20D267953B013
:100C4000077B23A96002DC00DE1000C8009B0000C7
:100C50008900990D44D003ED3000CC0005DC501E16
:100C600032E1B8008B000000D3000C507A002E0057
:100C70001E0088000B50E20005B5B00000EB5000EC
:100C8000009E00000088000000E2000005B00000A7
:100C90009CCDE0000B60005B0002E1000C50007B8B
:100CA0000000EDCCC00000000AD60F000F000F00BE
:100CB0000F007B00F2008B000F000F000F000F00F1
:100CC0000AD60000F0F0F0F0F0F0F0F0F0F0F0F004
:100CD000F00000006D9000F000F000F000F000C7A0
:100CE000004F00C800F000F000F000F06D90000030
:100CF0009FC305602CF6000000000000F000F0F03B
:100D0000F0F0F0F0F000000000C00008E9108A47A1
:100D1000D1E10000E100008B48D106E71000C000DF
:100D2000009FE60008B12E200E2006600F00000094
:100D30000D4000006CFDC300007A0040000F00F081
:100D4000003C06C00FFFFC10130000303CAEE9C1B0
:100D500009A10A800E1001E00E1001E009A11A801D
:100D60003D9EFAC103000030980007B01E201E20EF
:100D700008A0880000E3E100CFFFFFC0000F0000E3
:100D8000CFFFFFC0000F0000000F0000000F0000A9
:100D9000F0F0F0F0800080F0F0F0F0003CFE80E435
:100DA00001E4E100229E6000D56D80F001AAD6002A
:100DB0000F3CB24D004CE500007CF0000FAA006C27
:100DC0001AFFB100F0F0C0C000678784000930004E
:100DD0000550541987805480A300770870C0000024
:100DE0000770C000160780A3007708641987805435
:100DF0000930000550006788840000005988D0C081
:100E000000D0C202E01786C00C3C66A2D2B085B208
:100E10000C4B00008FFFFFF0000000F0000000F01E
:100E200000000040FFF800000028788710067000DE
:100E300001A0370C889626800C000C08700C002A44
:100E400007700C88A708800C000B07470C000C17D4
:100E500006800001A000288887100000CCCC60002C
:100E6000577590092882000000040000000F000060
:100E7000000F0000CFFFFFC0000F0000000F0000B8
:100E800000040000CFFFFFC06C80C0C001B00A208A
:100E90009500CCC03DD8740D001B04AAA11C3A9249
:100EA00002A58C4020000000F0000FF0000FF000C1
:100EB0000FF0000FF0002FF800AFF9FE6FF0000008
:100EC000F00000400000000008EFCE906FFF0C0023
:100ED0009FFF0C007FFF0C0009FF0C00000C0C00B2
:100EE000000C0C00000C0C00000C0C00000C0C00A2
:100EF000000C0C0080F0000002100C5004801990CF
:100F00003CC000C000C000C000C000C05775C00C8D
:100F1000B11B1771B2B04A850C1D2B66C3C000000F
:100F20003CC000C20000C002B00000C00940000088
:100F3000C01D000000C06702E000C0C10BD000046B
:100F4000A066C0000A21B0C0001C0AB8E4008500F9
:100F500000C000003CC000C10000C004A00000C0F0
:100F60000A200000C01C000000C0763CD600C0D0A3
:100F7000B10C000490002B000B2001C3002B001CBF
:100F800030008500BECC00004C9000750071C000A0
:100F9000C00000C003900006AA093000A11C0D018A
:100FA000E03A925708C00000A226C00001B0B0C0CD
:100FB000000663D8E4000C1000C0000000F0000040
:100FC000000000F00004B0000C4000880000E100C8
:100FD00000F0001EB702D92CFE8000000006C500FC
:100FE0000000001600000003F30000000ACA000021
:100FF000001E1E100000690A600000D203D000032A
:10100000C000D3000AFFFFFA001E10002E106B0074
:10101000000B60D5000006D00006C60000000500E9
:1010200000000003F30000000ACA0000001E1E10AA
:101030000000690A600000D203D00003C000D300A2
:101040000AFFFFFA001E10002E106B00000B60D587
:10105000000006D00019C9100001630460000003FD
:10106000F30000000ACA0000001E1E100000690AFA
:10107000600000D203D00003C000D3000AFFFFFAD3
:10108000001E10002E106B00000B60D5000006D073
:1010900000AB50200000003C80000003F300000083
:1010A0000ACA0000001E1E100000690A600000D27B
:1010B00003D00003C000D3000AFFFFFA001E100097
:1010C0002E106B00000B60D5000006D0000F0F0043
:1010D00000000C0C00000001E200000006C8000047
:1010E000000D2E0000003B0B400000A605A00001F3
:1010F000E100E10006FFFFF7000C50004E002E005B
:10110000000E3099000009A00008180000000184BA
:1011100000000001E700000006CE0000000D3D3099
:1011200000002D07A000009701E10000E100B600DB
:1011300006FFFFFC000B60000E202E10000A908AB4
:10114000000003E00000008FFFFC000003EF000040
:1011500000000D4F00000000890F00000003E10FA8
:101160000000000D400FFFFC008FFFFF000003E1B7
:10117000000F00000C70000F00007D00000FFFFC4E
:10118000006DFFD5000AD4004D606D000001C2C49F
:1011900000000000F000000000F000000000D4009B
:1011A0000000006D000001B20AD4004D90006DFFF8
:1011B000D5000000C5000000003800000001A900B3
:1011C0000000000004B800000300FFFFF4F000007E
:1011D000F00000F00000F00000FFFFF4F00000F06D
:1011E0000000F00000FFFFF409B200040000FFFF60
:1011F000F4F00000F00000F00000F00000FFFFF449
:10120000F00000F00000F00000FFFFF41AD91072A7
:101210000260FFFFF4F00000F00000F00000F000BA
:1012200000FFFFF4F00000F00000F00000FFFFF40A
:101230000F0F000C0C00FFFFF0F00000F00000F0BA
:101240000000F00000FFFFF0F00000F00000F000F0
:1012500000FFFFF008C4001300F000F000F000F001
:1012600000F000F000F000F000F000F04D60310000
:101270000F000F000F000F000F000F000F000F00F6
:101280000F000F0019D91063046000F00000F00097
:1012900000F00000F00000F00000F00000F000009E
:1012A000F00000F00000F000F0F0C0C00F000F00F0
:1012B0000F000F000F000F000F000F000F000F00B6
:1012C0000FFFFE81000F0003CD100F00000C700F08
:1012D000000005C00F000000F0FFFFC000F00F008D
:1012E0000001E00F000008A00F00028E100FFFFEAB
:1012F0009100000005C9111000008C50F600000F8D
:10130000FE20000FF5D0000FF0A9000FF01E400FD7
:10131000F003E10FF0007C0FF0000C7FF00001EF14
:10132000F000005F0005C500000000150000008E01
:10133000FE80000CA202BC006B00000B60D300001A
:1013400003D0F0000000F0F0000000F0D300000334
:10135000D06B00000B600CA202AC00008EFE80007F
:101360000006C500000005000000008EFE80000C95
:10137000A202BC006B00000B60D3000003D0F000A1
:101380000000F0F0000000F0D3000003D06B00007C
:101390000B600CA202AC00008EFE80000008E8008A
:1013A000000044044000008EFE80000CA202BC003D
:1013B0006B00000B60D3000003D0F0000000F0F0E1
:1013C000000000F0D3000003D06B00000B600CA203
:1013D00002AC00008EFE8000007C50200000103C1B
:1013E0006000008EFE80000CA202BC006B00000BAF
:1013F00060D3000003D0F0000000F0F0000000F027
:10140000D3000003D06B00000B600CA202AC000004
:101410008EFE8000000F0F0000000C0C0000008EFC
:10142000FE80000BB202AC006B00000B60D300002A
:1014300003D0F0000000F0F0000000F0D300000343
:10144000D06B00000B600BB202AC00008EFE80007F
:1014500040000300CA003E301DA3E30001DF30005E
:1014600003EBA0003E30AA00B3000A3000000002E7
:1014700020008EFE8E100CA202EC006B0005BC60FA
:10148000D3001E14D0F000B500F0F004C000F0D37B
:101490001D2003D06B97000B600CE202AC001D9E78
:1014A000FE8000230000000005D600000600F000CA
:1014B0000FF0000FF0000FF0000FF0000FF0000F22
:1014C000F0000FE1001E9A00A91AFFA1019C200262
:1014D0004000F0000FF0000FF0000FF0000FF000E0
:1014E0000FF0000FF0000FE1001E9A00A91AFFA1F3
:1014F00003CC40271172F0000FF0000FF0000FF046
:10150000000FF0000FF0000FF0000FE1001E9A0036
:10151000A91AFFA10F00F00C00C0F0000FF0000F9F
:10152000F0000FF0000FF0000FF0000FF0000FE0E0
:10153000000EA6005A1CFFC1002BA10000320000C3
:10154000C60005E06D000C600E403E0006B0A6002F
:1015500000E4E000006E8000001F1000000F00009B
:10156000000F0000000F0000F00000F00000FFFF7F
:10157000B1F000AAF0001FF0001FF000AAFFFFB1B9
:10158000F00000F0000000001AFC20A707B0E10006
:10159000F0F000E0F00880F09CA1F0004CF5000FA6
:1015A000FD207BF5EFB1000000B600000006C6008C
:1015B0000000040005DFFA2F5D4004DFD400003F87
:1015C000F000000FD400004F5D4004CF05DFFB2F7B
:1015D00000004C10003BA2000021000005DFFA2FA4
:1015E0005D4004DFD400003FF000000FD400004F46
:1015F0005D4004CF05DFFB2F002CD500049208705E
:101600000000000005DFFA2F5D4004DFD400003F3A
:10161000F000000FD400004F5D4004CF05DFFB2F2A
:101620000000202004CCDC800000000005DFFA2F41
:101630005D4004DFD400003FF000000FD400004FF5
:101640005D4004CF05DFFB2F000F0F00000C0C00E6
:101650000000000002AEFC3F3E8102CFD600003FFA
:10166000F000000FD500003F3E7102CF03BEFC3FEB
:1016700000048800000818000001840002AEFE3F4C
:101680003E8101CFD500002FF000000FD500002FC4
:101690003E7101CF03AEFE3F05DFFB2F2CFE805DC8
:1016A0004004CFB201A9E300003F20000EF000008B
:1016B0000FCCCCCCD400004F5000045D4004CFA32D
:1016C00001AA05DFFA1F2CFE8000000004CFFA10EB
:1016D0005D4007D1D4000053F0000000D400005357
:1016E0005D4007E104DFFA20000D50000013800088
:1016F0000029900000C600000018D500000013006B
:1017000004BFFB405D4004D5D200002EFCCCCCCC05
:10171000D20000135D4004D404DFFB3000006C00F5
:10172000005C81000030000004BFFB405D4004D538
:10173000D200002EFCCCCCCCD20000135D4004D4EF
:1017400004DFFB30004DD40006911960000000005A
:1017500004BFFB405D4004D5D200002EFCCCCCCCB5
:10176000D20000135D4004D404DFFB3000F00F0012
:1017700000C00C000000000004BFFD505D4004D517
:10178000D200002EFCCCCCCCD20000135D4002D4A1
:1017900004BFFD407A2004B7000100F000F000F023
:1017A00000F000F000F000F0000102C68A201000F6
:1017B0000F000F000F000F000F000F000F000000C0
:1017C000008E80185058000000000F00000F00002D
:1017D0000F00000F00000F00000F00000F000000BE
:1017E000F0F0C0C000000F000F000F000F000F004E
:1017F0000F000F0007D627D003AEF9104B504E4014
:1018000005DFEBE25D4004EAD300004EF000000F7C
:10181000E300004D5D4004D404CFFB400001201CD8
:10182000DCB1000000F6EFB1FA009AF1001FF00001
:101830000FF0000FF0000FF0000F000000B60000E6
:101840000018D5000000130004BFFB405D4004D524
:10185000D400004DF000000FD400004D5D4004D5D1
:1018600005DFFC4000006B00005C810000300000E0
:1018700004BFFB405D4004D5D400004DF000000FD4
:10188000D400004D5D4004D505DFFC40004DD40080
:10189000069119600000000004BFFB405D4004D5C4
:1018A000D400004DF000000FD400004D5D4004D581
:1018B00005DFFC400000102007DDCC5000000000D8
:1018C00004BFFB405D4004D5D400004DF000000F84
:1018D000D400004D5D4004D505DFFC40000F0F0033
:1018E000000C0C000000000002AEFE503E8102D54C
:1018F000C500002DF000000FC500002D3E8102D56F
:1019000002AEFE50000F00000008000000000000C2
:10191000CFFFFFC00000000000080000000F000023
:101920000000002308EFFCD29A101B79E101C11ED0
:10193000F00A400FB688005B4EE004E33DCFFB3079
:10194000320000000C5000018B00000100F0000F7D
:10195000F0000FF0000FF0000FF1001FA900AF1B07
:10196000FE6F00000000100008A002C5000010007B
:10197000F0000FF0000FF0000FF0000FF1001FA9B2
:1019800000AF1BFE6F00000001CC202A22A2000045
:1019900000F0000FF0000FF0000FF0000FF1001F3B
:1019A000A900AF1BFE6F00000F00F00C00C000008C
:1019B00000F0000FF0000FF0000FF0000FF0000F2C
:1019C000A6007F1CFE9F0000000001000004B40080
:1019D000009A200000100000D3000C507A002E0066
:1019E0001E0088000B50E20005B5B00000EB50006F
:1019F000009E00000088000000E2000005B000002A
:101A0000F0000000F0000000F0000000F3CFE6005E
:101A1000FC202D50F20002D0F00000F0F20002E0B5
:101A2000FC202D50F3CFE600F0000000F000000095
:101A3000F000000000F0F00000C0C0000000000056
:101A40006B000A700E100E100A605B0003B0B60047
:101A500000E2E000007CA000002F4000001E00001B
:101A60000079000000D30000F0F0F0F0F0F0F0009A
:101A70000F00000F00000F00000F39000FE400BF3F
:101A800010006F00000F00000F00000FFFF80000B3
:101A90000F000F000F000F913F80DF001F000F00AD
:101AA0000F000F00008EFE80FFFFC00AB202B9F0E7
:101AB00000005C00000DF00000B5000006F0000022
:101AC000E0000001F00000F0000000FFFFC0E200B5
:101AD0000002F0000088000009F000001D8101995B
:101AE000F00000019EFE70FFFFC0000004BFFB304D
:101AF0005EFE505D4004E7D202D5D300004F2000C7
:101B00002EF000000FCCCCCCD400004F2000135E90
:101B10004004E7D202C504DFFC305EFE5000000046
:101B20004C2C4003B3003CFC10C608A0F00260E55A
:101B300000003EB400006E600002E0C000F0B70795
:101B4000B01CFC102B65C200890000000005CD60B0
:101B50000E11B00D7000019D500002E02E01E00654
:101B6000CC40000000F0F00000C0C000C60005E05E
:101B70006D000C600E403E0006B0A60000E4E000E0
:101B8000006E8000001F1000000F0000000F00001A
:101B9000000F00002C54B40000991000FFFFFF005C
:101BA00000008A000002E200000A8000003E1000EF
:101BB00000C6000004E000000E4000006C000000C1
:101BC000CFFFFF407B399103B5000000009CCDE0C2
:101BD000000B70005C0001E2000B70007B0000ED68
:101BE000CCC0000000003EB00000E3000003C000D5
:101BF00000CEEC3000097000000C4000000E100018
:101C0000001E0000004C000000790000009600005B
:101C100002E20000EE60000007DA007704910000A5
:101C20007B399103B5000000CCCC60007202702AB1
:101C3000CA300000F0C0000078708080484000008A
:101C40004400B000BC300000002020ACDC8010005C
:101C5000000000000150603C5C70927300000000C6
:101C6000002BFFA10001E7007D100980000A800E13
:101C7000200003E00F000000F00F000000F00B3028
:101C80000003B00590000A4000A3004A004FFE0385
:101C9000FFF40000F0000FF0000FF0000FF0000F55
:101CA000F0002FF800AFF9FE6FF00000F0000040E8
:101CB000000000007FFFFFF200F00F0002C00F00E5
:101CC00004C00F0007800F0009600F000D200E10E8
:101CD000FFF80000FFFFF800FFFFFFFFFFFF00001D
:101CE000C167060059A260001676C100C6A057D091
:101CF000064200003AC2A5B063300000165267D019
:101D0000C5900000000F0000000F0000000F000051
:101D10004FFFFF40000F0000000F0000000F000009
:101D2000000F0000000F0000000F0000000F000077
:101D3000000F0000000F0000000F0000000F000067
:101D40004FFFFF40000F0000000F0000000F0000D9
:101D5000000F00004FFFFF40000F0000000F0000C9
:101D6000000800008E60EFC06C3000008000800032
:101D700080F000F000F000003BCB300A300000D1D2
:101D800001D02A000000C000C0B2000000B404B4BA
:101D90009000000018C81B10000000000048000060
:101DA00000000000B2BCC31BCC00058A300CA300AD
:101DB000000C1A301CA301007601BCC31BCC000030
:101DC0000C106600D00085000C100000B1004A0025
:101DD0000C102B00C20000000001D0000760000DB5
:101DE0000000590000B20002B0000950000D0000D0
:101DF000670000C1000000000007EFC3005D204C39
:101E000000C4000100F000001FFFFFD000F0000040
:101E10001FFFFF2000E10000008A10230008EFD21E
:101E200003DC600B40C00E00C00F00C00F07600F46
:101E30003C000FC1003F10008F00010C601B03DC51
:101E4000B30000006CEC6C7002F000C00CA009D074
:101E500000C00C6309C000C00C1955C000C00C09BB
:101E600090C000C00C0490C0002BFFA10001E7004F
:101E70007D100980000A800E200003E00F000000A2
:101E8000F00F000000F00B300003B00590000A4096
:101E900000A3004A004FFE03FFF400000026444662
:101EA00020000670000056003F0000000F30BF0009
:101EB00000000FA0EF0000000FE0FF444444444046
:101EC000BF00000000004F0000000000066000009E
:101ED00066000026544630003DFE303203E200002A
:101EE0006A00001E08DB5F8B00AFE2003EF0004C92
:101EF000E100A7A904E11CFE30000000000DA000D5
:101F0000002DE1000097A60000E25B0003B00E1078
:101F10000A600A700E1003D05A0000E2A500009774
:101F2000FCCCCCDC8FFFFFFFF800F0000F0000F0CE
:101F3000000F0000F0000F0000F0000F0000F000A4
:101F40000F0000F0000F0000F0000F0000F0000F85
:101F50000000F0000F0000C0000C0000EFFFFF4089
:101F60007B0000000C80000001E40000005E100017
:101F7000000D9000004D100001E300000B60000018
:101F80006A000000EFFFFFC0FFFFFF800001D000EC
:101F90000760000D0000590000B20002B0000950B7
:101FA000000D0000670000C10000000080F000008C
:101FB00000000021000000C0000000C000000390ED
:101FC0000000075000000A2001000C009E101B00BA
:101FD0000960570003B0840000E1C0000096C00013
:101FE000002E9000000D50003995058A50C0098AD6
:101FF00000C0C000F200C0C0088A00C03A7505A841
:1020000030000000003E6000C40000F00000F0005E
:1020100000F00000F00000F00000F00000F0000010
:10202000F00000F00000E00005B0009D300000006E
:1020300000000110689909104005840039B5072097
:10204000901ACA0000037000CCCECC3000190000FA
:1020500000730000CCECCC300360000004100000E2
:1020600000004C004B814B8100E5000018B40000DB
:1020700018B4000018CCCCCC0C400000018B400000
:1020800000018B40000005E00004B81004B8100007
:10209000081000003CCCCCC0008C000001DB4000EC
:1020A0000864C0001D00C40086004C00E0000E1053
:1020B00086004B001D00C4000864C00001DB400026
:1020C00000AC000004D6F00E20400F0000CFCCF092
:1020D0000F00F00F00F00F00F00F00F00F00F00FF6
:1020E00000F0000004D6F00E20F00F00F0CFCCF08E
:1020F0000F00F00F00F00F00F00F00F00F00F00FD6
:1021000000F00000FDCCCDF0EA000AE0C77077C017
:10211000C0B6B0C0C02F20C0C0B6B0C0C77077C0B6
:10212000EA000AE0FDCCCDF00101000C0400000043
:10213000C4010008010A010204000000C8010008EF
:102140000304010205000000D4010008070A000290
:1021500007000000DC010008060C00010700000079
:10216000040200080A0A00020A000000280200080F
:10217000080A01020A0000005C02000801040102D2
:102180000300000084020008040E010206000000A3
:1021900088020008040E000206000000A4020008E5
:1021A0000505010208000000C0020008070700053D
:1021B00008000000D00200080203000A040000002A
:1021C000EC0200080401000804000000F00200080E
:1021D0000102010A04000000F2020008060B0102DD
:1021E00007000000F4020008060A010207000000D0
:1021F00018030008030A0102070000003803000862
:10220000060A0102070000004C030008070A00024A
:10221000070000006C030008070A00020700000026
:1022200094030008070A000207000000BC0300082E
:10223000070A000207000000E4030008060A010282
:10224000070000000C040008060A01020700000055
:102250002C040008070A0002070000004C040008D4
:1022600001070105040000007404000802080005CD
:10227000040000007C0400080707010508000000B6
:10228000840400080704010708000000A0040008F7
:102290000707010508000000B0040008050A010254
:1022A00007000000CC0400080A0A00020A0000002F
:1022B000EC040008090A00020900000020050008DB
:1022C000060A010207000000540500080A0A01027C
:1022D0000A00000074050008080A01020900000055
:1022E000A8050008060A010207000000D005000842
:1022F000050A010206000000F00500080A0A0102B2
:102300000B00000010060008070A01020900000087
:1023100044060008010A0102030000006C060008E0
:10232000050A00020600000078060008070A0102FC
:102330000800000098060008050A010206000000D7
:10234000C00600080A0A01020C000000E0060008AE
:10235000080A01020A00000014070008090A010225
:102360000B0000003C070008060A010207000000FD
:10237000700700080B0A01020B000000900700081C
:10238000060A010208000000CC070008050A010245
:1023900007000000EC070008070AFF020600000023
:1023A0000C080008060A01020800000034080008B2
:1023B000090A000209000000540800080C0A000283
:1023C0000C00000088080008080A0002080000004D
:1023D000C4080008070A000208000000EC08000812
:1023E000070A00020600000014090008040D02029A
:1023F000060000003C090008060B0102070000006F
:1024000058090008040D0002060000007C090008BD
:102410000605010208000000980900080701000DE8
:1024200007000000A80900080403020207000000DA
:10243000AC0900080807000509000000B4090008FD
:10244000070A010209000000D0090008080700057A
:1024500008000000F8090008080A0002090000004E
:10246000140A000808070005080000003C0A0008DC
:10247000040A000204000000580A0008080A0005C7
:10248000090000006C0A0008060A010208000000AA
:10249000940A0008010A010203000000B40A0008BF
:1024A000030DFF0203000000C00A0008060A010233
:1024B00007000000DC0A0008010A01020300000016
:1024C000FC0A00080A0701050C000000080B0008C0
:1024D00006070105080000002C0B0008080700058E
:1024E00008000000440B0008070A0105090000006D
:1024F000600B0008080A000509000000880B0008AE
:102500000407010504000000B00B000805070005E2
:1025100006000000C00B0008050AFF0204000000CE
:10252000D80B00080607010508000000F80B00089A
:102530000707000507000000100C00080A07000547
:102540000A0000002C0C0008060700050600000029
:10255000500C0008070A000507000000680C00087E
:102560000507000505000000900C0008040D02029C
:1025700006000000A80C0008010D0302070000007F
:10258000C40C0008040D010206000000D40C000871
:102590000602010808000000F00C00080101000C10
:1025A00004000000F80C0008010901050400000007
:1025B000FC0C00080608010307000000080D0008D5
:1025C000070A000207000000200D000808080004A8
:1025D00007000000480D0008070A0002070000007D
:1025E000680D0008010B030307000000900D0008B0
:1025F000060D0102080000009C0D00080302020203
:1026000007000000C40D00080A0A00020A000000CA
:10261000C80D00080504000205000000FC0D0008BC
:102620000405000605000000080E00080704000766
:1026300008000000140E0008040100080400000057
:10264000240E00080A0A00020A000000280E0008F2
:1026500005010103070000005C0E000804030103EC
:1026600005000000600E00080708000408000000D4
:10267000680E00080306010205000000880E00082D
:102680000406000205000000940E00080403020284
:1026900007000000A00E0008060A0105080000005F
:1026A000A80E0008070B000208000000C80E000872
:1026B0000102010704000000F40E00080304020BED
:1026C00007000000F80E00080306000205000000E5
:1026D000000F000804040102050000000C0F0008B0
:1026E0000405000605000000140F00080A0A000295
:1026F0000A000000200F00080A0A00020A00000079
:10270000540F00080A0A01020B000000880F00089D
:10271000060A010507000000BC0F0008090C0000B4
:1027200009000000DC0F0008090C0000090000008F
:1027300018100008090C00000900000054100008DF
:10274000090C00000900000090100008090C0000AE
:1027500009000000CC100008090C0000090000006E
:10276000081100080C0A00020C00000044110008C7
:102770000A0D01020A00000080110008060C010089
:1027800007000000C4110008060C0100070000004B
:10279000E8110008060C0100070000000C120008F8
:1027A000050C01000700000030120008040CFF00B7
:1027B0000300000054120008040C00000300000095
:1027C0006C120008050CFF000300000084120008D2
:1027D000030C000003000000A8120008090A000210
:1027E00009000000C0120008080C01000A000000E7
:1027F000F4120008090C01000B000000241300086B
:10280000090C01000B00000060130008090C010016
:102810000B0000009C130008090C01000B000000D5
:10282000D8130008090C01000B0000001414000864
:10283000070701050800000050140008090C0101F9
:102840000B0000006C140008060C010008000000DA
:10285000A8140008060C010008000000CC140008B1
:10286000060C010008000000F0140008060C01002E
:102870000800000014150008070C00000800000004
:1028800038150008060A0102070000006815000854
:10289000060A01020800000088150008080A000264
:1028A00009000000A8150008080A0002090000003D
:1028B000D0150008080A000209000000F8150008F9
:1028C000080A00020900000020160008080A000299
:1028D0000900000048160008080A0002090000006C
:1028E000701600080E0700050F000000981600087B
:1028F000080A000508000000CC160008080A0002BB
:1029000008000000F4160008080A00020800000091
:102910001C170008080A00020800000044170008FD
:10292000080A0002080000006C170008040AFF02F1
:102930000300000094170008040B000103000000CE
:10294000A8170008060AFE0203000000C0170008CE
:10295000030A000203000000E0170008080A000252
:1029600008000000F4170008060A01020800000031
:102970001C180008080A0002080000003C180008A3
:10298000080A00020800000064180008080A000293
:10299000080000008C180008080A00020800000067
:1029A000B4180008080A000208000000DC1800083B
:1029B00007070005080000000419000808090004C2
:1029C0000800000020190008060A010208000000A3
:1029D00044190008060B01010800000064190008F2
:1029E000060A01020800000088190008060A010210
:1029F00008000000A8190008070E000107000000E9
:102A0000C8190008070D010209000000001A00089B
:102A1000070D000207000000341A00080107010535
:102A200003000000681A0008060A00020600000001
:102A3000701A0008040A000203000000901A00083F
:102A40000D0A01020F000000A41A00080E0700057D
:102A50000F000000EC1A0008050C01000700000040
:102A6000201B0008060A000206000000441B0008A4
:102A7000070C000008000000641B0008070C0000A1
:102A800006000000941B0008060A00020500000072
:102A9000C41B0008070D000207000000E41B00082B
:102AA0000602010207000000181C000806020102CD
:102AB00007000000201C00080501010307000000BA
:102AC000281C000805020102070000002C1C000859
:102AD0000102030207000000341C00080303020285
:102AE00007000000381C00080303020C0700000068
:102AF000401C00080503010207000000481C0008F4
:102B00000503010107000000541C00080A0A000226
:102B10000A000000601C0008060A01050800000009
:102B2000941C00080807000508000000B41C0008F9
:102B30000401000804000000D01C00080601000881
:102B400007000000D41C00080C0100080D00000064
:102B5000D81C00080203010204000000E01C000869
:102B60000203010204000000E41C00080203010A41
:102B700004000000E81C0008040302020600000034
:102B8000EC1C00080403010206000000F41C00080D
:102B90000403010A06000000FC1C0008070C0002E8
:102BA00008000000041D0008070C000208000000D7
:102BB000341D00080303020606000000641D00081F
:102BC0000902020A0D0000006C1D00080E0A000236
:102BD0000F000000781D0008030501060300000037
:102BE000C01D00080305010603000000CC1D0008FD
:102BF000050AFE0202000000D81D0008080AFF02B4
:102C000007000000F81D0008060B00010700000087
:102C1000201E00080B0600020D000000441E0008E4
:102C20000A0A00020A000000681E00080B0A0002DF
:102C30000C0000009C1E0008060B010107000000AC
:102C4000D81E0008080A000209000000FC1E000847
:102C50000A0B000209000000241F0008070B0002F5
:102C6000070000005C1F00080701010808000000C1
:102C7000881F0008050AFE02020000008C1F0008E1
:102C80000102010704000000AC1F0008080E01004B
:102C900008000000B01F0008090501050B00000036
:102CA000E81F0008050E00000500000004200008D1
:102CB000070501050800000030200008070701058E
:102CC0000800000044200008060801040800000075
:102CD00060200008070800040800000078200008B1
:102CE000070B01020800000098200008050A0002F6
:102CF00006000000C4200008050A000206000000CB
:102D0000E420000807090003070000000421000870
:102D1000FFFFFFFF042D00080000000001FB02FB85
:102D2000EC2C0008102D0008CA25CA25E02C00084C
:102D30001C2D000864226522C82C0008282D0008DC
:102D400060226022BC2C0008342D00084822482252
:102D5000B02C0008402D00082B222B22A42C0008A8
:102D60004C2D00081E221E22982C0008582D000809
:102D700019221A22802C0008642D00081522152221
:102D8000742C0008702D0008112212225C2C0008FF
:102D90007C2D00080F220F22502C0008882D0008DF
:102DA00006220622442C0008942D0008022202224A
:102DB000382C0008A02D00082E212E212C2C0008D4
:102DC000AC2D000826212621202C0008B82D000853
:102DD00022212221142C0008C42D000813211321C4
:102DE000082C0008D02D0008AC20AC20FC2B0008DB
:102DF000DC2D000844204420F02B0008E82D0008BA
:102E000039203A20D82B0008F42D0008302030203B
:102E1000CC2B0008002E000826202620C02B0008FE
:102E20000C2E0008202022209C2B0008182E0008C1
:102E30001C201E20782B0008242E000818201A20A1
:102E4000542B0008302E0008132014203C2B0008BF
:102E50003C2E000810201020302B0008482E0008BF
:102E6000C003C003242B0008542E0008BC03BC037D
:102E7000182B0008602E0008A903A9030C2B0008DA
:102E80006C2E0008D802DD02C42A0008782E000843
:102E9000C902C902B82A0008842E0008C602C70267
:102EA000A02A0008902E000892019201942A00089E
:102EB0009C2E00087D017E017C2A0008A82E0008B7
:102EC00078017801702A0008B42E000860016101C1
:102ED000582A0008C02E000852015301402A000859
:102EE000CC2E000841014201282A0008D82E0008F3
:102EF000310131011C2A0008E42E0008A000FF0067
:102F00009C250008F02E000820007E0028210008E3
:102F1000FC2E0008FDD40508B9C7050807C8050838
:102F20000DC8050829C80508A8DC0508101001010E
:102F3000082F00080000000000000000FBFBFBFB66
:102F4000FBFBFB43B8FB0000F7F0F7F0F7F0B6B07F
:102F50000031230000E4780000F2B7009FFFFFC0BB
:102F600037C4F630FFFFFF704B97D4200B67B000DB
:102F70000724500007F0001CF910BE7DC1FB00883B
:102F8000ED20008FFA4006CFF70004EEFB00CFAE35
:102F90007DF81BF94004F0003DFD302D00C949C00B
:102FA0009600F404F2E100D808D980004EFE6F20AC
:102FB0000000209900000002F46ED40009C1F57DE4
:102FC000002F61F57D007D006ED3000019DFA300A6
:102FD00000CE65CD0000FC008F0000AFBBF8000004
:102FE0001FFFB07F407FDEF6DB00DD13EFF400FC57
:102FF000003FF300BF98EEEE3019EFC43A20000016
:10300000F4F4F4B300194001CF400BF7005F9000D7
:10301000AF2000EC0000FB0000FB0000BE00007FC2
:1030200060002EE10006FE20006F40004910004FB6
:10303000C10007FB0000AF40002FA0000CD0000B28
:10304000F0000BF0000EB0006F7001EE202DF600C6
:103050004F60000004B0009599307CE9207ACA30B6
:1030600064A610013000000000BF000000BF000097
:1030700077DF7740FFFFFF7000BF000000BF000058
:103080003B408E10C8000000FFF77774B8FB0000CB
:103090000008F5000DE0003F90008F5000DE0004B6
:1030A000F90009F5000EE0005F90009F3000AA00D3
:1030B0000000000006CFC6007FD7DF70DF202FD0D2
:1030C000FF000FF0FF000FF0FF000FF0FF000FF008
:1030D000DF202FD07FD7DF7006CFC7007FFF47FFED
:1030E00000FF00FF00FF00FF00FF00FF00FF00FFE8
:1030F00008EE918FABF9EC01FF7600FF0006F900B6
:103100003EE102EE301CF500CFC777FFFFFF000065
:10311000019EEA1008F9CFB00DD01FF004300FF077
:1031200000007F80000FFB000007AF8027400FF0FA
:103130001EE8AFB003AFD7100002EF000009FF0098
:10314000004FFF0000BDCF0006F6BF001DD0BF003E
:103150007F50BF00EE77DF70FFFFFFF00000BF0081
:103160000BFFFF400FD777202F8000004FDFD700E5
:103170007FD7EF7027102FD000000FF09B203FD09B
:103180007FD7EF7007CFC500002EE30000BF7000AF
:1031900007FB00001EFEE8009FD7EF80DF102FE046
:1031A000FB000FF0BF102FD06FD7EF5007DFC50027
:1031B000FFFFFB7779FA0009F5001ED0006F700061
:1031C000DF2004FA000AF5002FD0007F7000000015
:1031D00001AFE9100AFAAF900FC00CF00BE23EA06D
:1031E00006FFFE108FC7CF80FF101FF0EF101FE00B
:1031F0008FD7DF8007DFD70006CFD7007FD7DF70FC
:10320000DF201EC0FF000CF0DF606FB05FFFFF60CB
:10321000027BFB00001DF400007F900003FE100005
:10322000FBB8000000B8FB000FB00B8000000000EE
:1032300000002B706F20A90000004970006CFF6037
:103240007EFC6100FF6000007DFD7200004AFF709F
:1032500000002870FFFFFF40777777200000000014
:1032600077777720FFFFFF40C6100000DFE82000DF
:10327000049EFA300003CF7006AFE920EFD71000AC
:10328000B500000007DFD9108FD7DFB0EF201FF0A7
:1032900043005FD00006FF50002FF600008F500063
:1032A00000340000008B000000BF0000005CFD71D6
:1032B0000006C4019C102E10000A70971BFAC3D0A0
:1032C000D2990A90F0F0E20971D0C2C33E497078F9
:1032D0005EB9F8001C72003700017DFE940000000A
:1032E0000006F90000000CFE1000002FEF60000047
:1032F0008F5FB00000DD0CF20005F807F7000AF957
:1033000079FD001FFFFFFF407F80006F90CF3000EE
:103310001FE10000FFFFB300FF78FD00FF00BF00CA
:10332000FF01DD00FFFFFA00FF77BF80FF000CE028
:10333000FF000CF0FF77BFA0FFFFEA10006BFEA4B8
:103340000009FD89EF606FC1003EF2CF30000242FC
:10335000FF00000000FF00000000CF300002426FBD
:10336000C1003EF209FD88EF70006BFEA400000072
:10337000FFFFC910FF77CFE1FF000AF8FF0002FD51
:10338000FF0000FFFF0000FFFF0002FDFF0009F843
:10339000FF77CFC1FFFFC710FFFFF4FF7772FF0079
:1033A00000FF0000FFFFF4FF7772FF0000FF000046
:1033B000FF7772FFFFF40000FFFFF0FF7770FF0060
:1033C00000FF0000FFFFF0FF7770FF0000FF00002C
:1033D000FF0000FF00000000005AFEA40009FE8864
:1033E000EF805FC1003EF4BF40000242FF000000DA
:1033F00000FF00BFFFFFDF20677AFB7FA0001CF605
:1034000009FD88DF90006BFEB6000000FF000FF0A2
:10341000FF000FF0FF000FF0FF000FF0FFFFFFF0C5
:10342000FF777FF0FF000FF0FF000FF0FF000FF0BD
:10343000FF000FF0FFFFFFFFFFFFFFFFFFFF000098
:103440000000FF0000FF0000FF0000FF0000FF0081
:1034500000FF0000FFBB10FF9FBAFA19ED910000BA
:10346000FF005FA0FF01EE10FF0AF500FF5F800084
:10347000FFED1000FFEE1000FF7FB000FF0AF70025
:10348000FF01EF40FF005FD1FF0000FF0000FF00E1
:1034900000FF0000FF0000FF0000FF0000FF000031
:1034A000FF7770FFFFF00000FFA0000AFFFFF100B0
:1034B0001FFFFDF6006FDFFBCB00ACBFFB7F21F7EA
:1034C000BFFB2F76F2BFFB0CCCC0BFFB07FF70BF6A
:1034D000FB02FF20BFFB00CC00BF0000FD1000BFBF
:1034E000FF8000BFFFF400BFFDEE10BFFB6FA0BF69
:1034F000FB0AF5BFFB01EEDFFB004FFFFB0008FFFF
:10350000FB0001DF006BFFA60009FD88DF906FC1A3
:10351000001CF6CF300004FCFF000000FFFF00009D
:1035200000FFCF400004FC6FC1001CF609FD88DFDE
:1035300090006BFFB6000000FFFFD910FF77CF901F
:10354000FF000CE0FF000BF0FF004EC0FFFFFF503C
:10355000FF777300FF000000FF000000FF00000085
:10356000006CFC600009FC7DF9004FB000BF50AF5B
:1035700050003FA0EF00000FF0FFCFA30FF0CFA847
:10358000DE5FD07F901CFF700AFB7BFFB4007CFCE9
:1035900069E70000FFFFC910FF77DF90FF000DF023
:1035A000FF000BF0FF003EB0FF4BFE30FF0CF500BC
:1035B000FF04FB00FF00AF40FF002EB017CFC70095
:1035C0009FB7CF70FF001B80DF7200006FFFC50048
:1035D000028DFF6000004EC0DE100DE08FD7BF806F
:1035E00007DFD710FFFFFF77FF7700FF0000FF0026
:1035F00000FF0000FF0000FF0000FF0000FF0000D0
:10360000FF000000FF000FF0FF000FF0FF000FF0C1
:10361000FF000FF0FF000FF0FF000FF0FF000FF0B2
:10362000EF201FE08FD7DF7007CFD700CF20008FAC
:10363000607F7000DF102FB002FA000CF107F60077
:1036400007F60CF10002F91FA00000CE6F60000029
:103650007FEF1000002FFA0000000CF600000000C1
:10366000DF000FA004F99F403FE007F66F707FF383
:103670000BF12FA09BF60EC00DE0D7B93F8009F3E8
:10368000F48C6F5006FAF05FAF1002FFC01FFC0011
:1036900000DF800CF800009F5009F5007FB001EEBC
:1036A000200BF509F70002FD4FD000007FEF40002E
:1036B000001DF90000004FFD100000CF9F700007B3
:1036C000F71DF3002EE105FB00AF6000BF700000A6
:1036D0008F7006FA2FD00BF409F42FB004F98F6025
:1036E00000BFED00005FF600000FF100000FF000DA
:1036F000000FF000000FF000FFFFFF777AFD000BD6
:10370000F6004FD000BF6004FD000BF6004FD00064
:10371000BFB777FFFFFF0000FFFBFC43FB00FB0090
:10372000FB00FB00FB00FB00FB00FB00FB00FC437D
:10373000FFFB0000DF10007F60002FA0000CF100F5
:1037400007F60002FA0000CF10007F60002FA000F3
:103750000CF10006B4000000BFFF34CF00BF00BF73
:1037600000BF00BF00BF00BF00BF00BF00BF34CF1D
:10377000BFFF000001EF2007EE801E98E16F43F7C6
:103780009A007700BBBBBB3087106DD4006300008C
:1037900005BFD7BF5FE88DFFDE1001EFFB0000BF64
:1037A000DE1001EF5FD88EFF05CFD7BFFB00000012
:1037B000FB000000FB000000FC9ED600FFC7DF609E
:1037C000FD001DD0F9000BF0FD001ED0FEC7DF503C
:1037D000F89FC50005CFD7005FD79FA0DD1007B2C7
:1037E000FB000000DD1005715FD79FA005BFD7006B
:1037F000000000BF000000BF000000BF05BFD7BF32
:103800005FE88DFFDE1001DFFB00007FDE1001DFCF
:103810005FE88DEF05CFD88F05CFD7004FB79F80DA
:10382000CD0009F2FFFFFFF4DD4447715FB78F80E1
:1038300005CFD70003CB0DD40FB0BFFB3FC30FB0F4
:103840000FB00FB00FB00FB005BFD7BF5FE88DFF4F
:10385000DE1001EFFB0000BFDE1001EF5FE88EFF1E
:1038600005BFD7BF673002EC6FE87DF505CFFA40A2
:10387000FB0000FB0000FB0000FCBFB3FFA9FAFC4B
:1038800000CFFB00BFFB00BFFB00BFFB00BF000081
:10389000FB7600FBFBFBFBFBFBFB00000FB00760B4
:1038A00000000FB00FB00FB00FB00FB00FB00FB0DF
:1038B0000FA07F70FA100000FB0000FB0000FB006F
:1038C00000FB06F9FB5F90FDE900FEF700FB9F306F
:1038D000FB1DD1FB03FA0000FBFBFBFBFBFBFBFB2F
:1038E000FBFB0000F8AFA17DFA30FFA9FED7AFB017
:1038F000FC00CF200CF0FB00BF000BF0FB00BF0072
:103900000BF0FB00BF000BF0FB00BF000BF0000052
:10391000F8BFB3FFA9FBFC00CFFB00BFFB00BFFB60
:1039200000BFFB00BF00000004AFFA405FE88EF567
:10393000CE1001ECFB0000BFCE1001EC5FE88EF56D
:1039400004AFFA40F89FD700FEC7DF50FD001ED03D
:10395000F9000BF0FD001DD0FFC7DF50FC9ED60024
:10396000FB000000FB0000004300000005BFD77F04
:103970005FE88EEFCE1001DFFB00009FDE1001DF5D
:103980006FE88EFF05CFD7BF000000BF000000BF6B
:1039900000000034F8B7FFB4FC00FB00FB00FB00A4
:1039A000FB00000003AEE9100DD56FA00EE730005C
:1039B00003AFFE6014205DF00EE66ED003AEEA3079
:1039C00000FB0000FB0000FB004FFFB014FC3000C8
:1039D000FB0000FB0000FB0000FB0000FB00000000
:1039E000FB00BFFB00BFFB00BFFB00BFFC00CFBF65
:1039F0009AFF3BFB8F000000CD002F807F307F308F
:103A00001F80CD000AE2F70005FBF20000EFA000E6
:103A1000009F6000CD007A009F108F20EF30DC0007
:103A20003F73FC72F7000DA7B8B7F20008FB74FBF8
:103A3000C00003FF30EF700000EE00AF3000000068
:103A40007F706F900BF4EC0001EFF300009FB0006B
:103A500004FEF7001DE1CE30AF503FC1CE001FB0D5
:103A60007F506F601FA0CE0009F3F80004FCF20045
:103A700000DFB000007F600000BE100002F900000F
:103A800004720000BFFFF0345EC0008F3005F70005
:103A90001EC000AF7440FFFFF000000003DF70099C
:103AA000F5200BF0000BF0000BF0007FD000BF40C2
:103AB000007FD0000BF0000BF0000BF00009F520A8
:103AC00003EF7000BFBFBFBFBFBFBFBFBFBFBFBFA0
:103AD000BF0000007FD30025F90000FB0000FB00C1
:103AE00000FB0000EF70004FB000CF7000FB000043
:103AF000FB0000FB0025F9007FE300007F9103CB72
:103B0000EECA3019E500000000000000FBB843FBDE
:103B1000FBFBFBFBFB43000004F00009F7107FCF29
:103B2000B0DB0571FB0000DC07717FFFB009F70017
:103B300004F00000007CFD910007FE7BFC000EF20B
:103B400000BF400FF00024200DF30000004FFFFFE6
:103B50005000149F941000000FB00BF007AFB7BFD8
:103B6000B00FFFFFE92000001827EB4B102CFD7D64
:103B7000FC2009D100D9000D70007D000CB000DCE4
:103B80000009FB7CF9004E8CFC8F40030000040010
:103B90006F9006F70DF10CF207F63F9001EC9F30A5
:103BA0004FFFEFF7277EF874277DF7744FFFFFF77D
:103BB000000BF000000BF0008BBFBFBF8B0067BF96
:103BC000BFBFBF0001AFD5000BF8CF200FB027401B
:103BD0000DE500003DFFB400BA29FF60F9004CE09C
:103BE000BFB407F01BFFBE90004BFF7000004ED02B
:103BF0008F200BF04FD79FA0FB0BF0B808B0000050
:103C0000006ABBA4000970002A60481AFE70A4A1D3
:103C10009902D62AA0E200000A90E200550AA19972
:103C200002E61A671AFE70A40970002A70006ABBC7
:103C3000A40000006ECFE33FD33F5EBB0949405D67
:103C40004D00C6C6007A7B001E5D40007FFFFFF07E
:103C500047777DF000000BF0000008B0FFF77774A5
:103C6000004ABBA4000791002A604A0FBC60A492DE
:103C70000F01E029900F03C00AA00FBD700BA10F28
:103C800002B01A590F00F0A40991002A60005ABB33
:103C9000A4000000FFFF7044442000006B60E0E0DF
:103CA000E2E05B50008B000000BF0000FFFFFF70F0
:103CB00077DF774000BF0000008B00007777774008
:103CC000FFFFFF706DD6E78F419D06F56F60FFFF28
:103CD00003CD600575F00007B0007F602726E0087F
:103CE000FE60000002B48FB364000000FB00BFFB65
:103CF00000BFFB00BFFB00BFFC00DFFF9AEFFDDB56
:103D00008FFB0000FB000043000000003AFFFFB003
:103D1000BFFF7F30FFFF4F00BFFF4F002AEF4F0074
:103D2000004F4F00004F4F00004F4F00004F4F001B
:103D3000004F4F00003B3B00B8FB000003002E503B
:103D400001C05C90FF400F400F400F400F40072024
:103D50004DFD40D404D0D404D03CFC309585005DAA
:103D60004D000C5C602E3E20A7A70000FF402F10E6
:103D7000000F407A00000F40C600000F42F1000023
:103D80000F47A07F000F4D62EF00003F199F00001A
:103D90008A3D4F0000D67FFF7004F1004F00000005
:103DA000FF4009C0000F401E60000F406E10000F62
:103DB00040C800000F43F28E700F49B3F8F0001EA8
:103DC0006147D0006E001D3000C800970004F20467
:103DD000FFF000003CD60007E100575F000D8000B7
:103DE000007F004F200007FF509B00002726E1F6D0
:103DF000047008FE67E01EF000000D80B7F00000C0
:103E00004F27A4F000009B0FFFF70001F60004F01D
:103E100000BF00008B0000340000CE0007F7005FF9
:103E2000B000DF2034FF00DFBFAAF919FE910000C7
:103E3000002B300000003AF91000000027000000BD
:103E400006F90000000CFE1000002FEF6000008F4C
:103E50005FB00000DD0CF20005F807F7000AF97901
:103E6000FD001FFFFFFF407F80006F90CF30001FDD
:103E7000E100000000002B50000008FA30000006AE
:103E80002000000006F90000000CFE1000002FEFDB
:103E90006000008F5FB00000DD0CF20005F807F74E
:103EA000000AF979FD001FFFFFFF407F80006F903F
:103EB000CF30001FE10000000007F90000009E5C09
:103EC000C1000006F90000000CFE1000002FEF609A
:103ED00000008F5FB00000DD0CF20005F807F7006E
:103EE0000AF979FD001FFFFFFF407F80006F90CF30
:103EF00030001FE1009F40100000446EC00000062B
:103F0000F90000000CFE1000002FEF6000008F5F32
:103F1000B00000DD0CF20005F807F7000AF979FDA2
:103F2000001FFFFFFF407F80006F90CF30001FE138
:103F3000000FB0BF0000000B808B00000000BFD05E
:103F400000000002FFF300000008FCF90000000D73
:103F5000E3FE0000005F90AF600000AF304FA000B4
:103F600001FE777FF20007FFFFFFF7000DF200026E
:103F7000FD004FC00000CF400006B70000000B0A54
:103F800000000004B600000006F90000000BFE006F
:103F900000002FEF5000007F5FA00000DD0CF1005B
:103FA00003F907F60009FA79FC000EFFFFFF206F06
:103FB00090008F70BF50003FD00000000000002F25
:103FC000FFFF40000000BFF77720000007FFF00070
:103FD0000000002ECBF000000000BF4BFFFF0000F0
:103FE00007FA0BF77700002EF97DF0000000BFFF05
:103FF000FFF0000005FD100BF777201EF4000BFF0B
:10400000FF4000000049CFE9300008FFA79FF600FD
:104010006FE30003EE10CF4000003410FF000000FB
:104020000000FF0000000000AF70000067204FE6B6
:104030000006FE1006FFDBCFF5000049EFFA300066
:1040400000007E500000000001C0000000008C90C5
:10405000000000004D500027EB00001500FFFFF4AA
:10406000FF7772FF0000FF0000FFFFF4FF7772FF91
:104070000000FF0000FF7772FFFFF400006D400CAE
:10408000E710040000FFFFF4FF7772FF0000FF005D
:1040900000FFFFF4FF7772FF0000FF0000FF777260
:1040A000FFFFF400009F900019D6C9100FFFFF40DA
:1040B0000FF777200FF000000FF000000FFFFF4018
:1040C0000FF777200FF000000FF000000FF77720B8
:1040D0000FFFFF40FB0BF0B808B0FFFFF7FF77744E
:1040E000FF0000FF0000FFFFF7FF7774FF0000FFF5
:1040F0000000FF7774FFFFF72D600027ED1000052B
:104100000000FF0000FF0000FF0000FF0000FF00B4
:1041100000FF0000FF0000FF0000FF0000FF0000A4
:10412000017E103EC6000400000FF0000FF0000FEB
:10413000F0000FF0000FF0000FF0000FF0000FF094
:10414000000FF0000FF0000003EE306E78E300FF88
:104150000000FF0000FF0000FF0000FF0000FF0064
:1041600000FF0000FF0000FF0000FF00FF4FB0BB9A
:104170003B8000FF0000FF0000FF0000FF0000FF89
:104180000000FF0000FF0000FF0000FF0000FF0034
:104190000FFFFC91000FF77CFE100FF000AF800FB7
:1041A000F0002FD0FFFFB00FF07FF7600FF00FF09F
:1041B000002FC00FF000AF700FF77CFC100FFFFC5A
:1041C0007100000007E901100244BF70FD1000BF3C
:1041D000FF8000BFFFF400BFFDEE10BFFB6FA0BF6C
:1041E000FB0AF5BFFB01EEDFFB004FFFFB0008FF02
:1041F000FB0001DF000A6000000007ED4000000046
:10420000164000006BFFA60009FD88DF906FC1001B
:104210001CF6CF300004FCFF000000FFFF00000090
:10422000FFCF400004FC6FC1001CF609FD88DF9041
:10423000006BFFB600000000000017A0000004EDB6
:1042400060000003600000006BFFA60009FD88DF2E
:10425000906FC1001CF6CF300004FCFF000000FF8F
:10426000FF000000FFCF400004FC6FC1001CF609F6
:10427000FD88DF90006BFFB6000000000003EE3009
:1042800000004E77E500006BFFA60009FD88DF9077
:104290006FC1001CF6CF300004FCFF000000FFFFE0
:1042A000000000FFCF400004FC6FC1001CF609FDB8
:1042B00088DF90006BFFB600004E90100000154C98
:1042C000F400006BFFA60009FD88DF906FC1001CA1
:1042D000F6CF300004FCFF000000FFFF000000FFED
:1042E000CF400004FC6FC1001CF609FD88DF900080
:1042F0006BFFB600000BF0BF000008B08B00003968
:10430000DFD71006FFA79FC05FE40007F7CF60006C
:1043100001FCFF000000FFFF000000FFCF60000174
:10432000FC5FE40007F708FFA79FC00049DFD71034
:10433000010001009C109C106FC9F90006FF90005D
:1043400009FFC1009F96FC10690069000000000190
:1043500043006BFEBAF309FD88EFB06FC103FFF6AF
:10436000CF301DE5FCFF008F40FFFF04F800FFCFBA
:104370005DD104FC6FFF401CF60CFE88DF903FAB64
:10438000FFA60034100000000B92000006BE600083
:1043900000043000FF000FF0FF000FF0FF000FF0EF
:1043A000FF000FF0FF000FF0FF000FF0FF000FF015
:1043B000EF201FE08FD7DF7007CFD7000004BA00CF
:1043C000007F940000320000FF000FF0FF000FF0AC
:1043D000FF000FF0FF000FF0FF000FF0FF000FF0E5
:1043E000FF000FF0EF201FE08FD7DF7007CFD7005F
:1043F000009F90001BC6CB10FF000FF0FF000FF0D6
:10440000FF000FF0FF000FF0FF000FF0FF000FF0B4
:10441000FF000FF0EF201FE08FD7DF7007CFD7002E
:104420000BB0BB0008808800FF000FF0FF000FF00A
:10443000FF000FF0FF000FF0FF000FF0FF000FF084
:10444000FF000FF0EF201FE08FD7DF7007CFD700FE
:1044500000006D40000DE710000410008F7006FA98
:104460002FD00BF409F42FB004F98F6000BFED00DA
:10447000005FF600000FF100000FF000000FF000E9
:10448000000FF000FF000000FF000000FFFFD91048
:10449000FF77CF90FF000CF0FF000CF0FF77BF908C
:1044A000FFFFD910FF000000FF00000007DF9100B0
:1044B0007FAAF900DD00CF00FB00BF00FB02E9008E
:1044C000FB4FF910FB146EB0FD600BF0FFF89F80FE
:1044D000FB8EE7100010000000D92000016BF700F0
:1044E0000000330005BFD7BF5FE88DFFDE1001EF8E
:1044F000FB0000BFDE1001EF5FD88EFF05CFD7BFF6
:104500000000010000029F30005FC60000140000A0
:1045100005BFD7BF5FE88DFFDE1001EFFB0000BFD6
:10452000DE1001EF5FD88EFF05CFD7BF003EE6005B
:1045300006F77F700000000005BFD7BF5FE88DFF62
:10454000DE1001EFFB0000BFDE1001EF5FD88EFF31
:1045500005CFD7BF07EA00100275CF9000001410F6
:1045600005BFD7BF5FE88DFFDE1001EFFB0000BF86
:10457000DE1001EF5FD88EFF05CFD7BF00FB0BF039
:1045800000B808B00000000005BFD7BF5FE88DFF8E
:10459000DE1001EFFB0000BFDE1001EF5FD88EFFE1
:1045A00005CFD7BF0006C700000B0A00000A1C0099
:1045B0000003B60004AEF9CF5FFB7BFFDF4000DFF6
:1045C000FB0000BFDF5000DF5FFB7BFF04AEFACFD4
:1045D00004AFE98F6DFA305FE88DFFE87DE2CE2011
:1045E00001DF5002F7FB00007FFFFFFBDD1000BF83
:1045F0007445755FE87DFFE77DE204BFE98F6DFAE2
:104600003000000005AFD7105FD79FC0DE1006B3A3
:10461000FB000000DD1005725FD78FC005CFF910D9
:10462000004E50000001C000005C9000001000002F
:1046300002E71000006DD1000000500005CFD70048
:104640004FB79F80CD0009F2FFFFFFF4DD444771B3
:104650005FB78F8005CFD700000011000006D7009C
:1046600000BE71000031000005CFD7004FB79F801A
:10467000CD0009F2FFFFFFF4DD4447715FB78F8083
:1046800005CFD700006FC10008E5CC100000000086
:1046900005CFD7004FB79F80CD0009F2FFFFFFF491
:1046A000DD4447715FB78F8005CFD70000FBBF00A7
:1046B00000B88B000000000004AFE9104FC78FB0B6
:1046C000CD1007F3FFFFFFF7DD4446735FB78EB0F1
:1046D00005CFE8100200005F920004BD1000020048
:1046E00000FB0000FB0000FB0000FB0000FB0000E3
:1046F000FB0000FB00000000000406DD5E7101000D
:104700000FB00FB00FB00FB00FB00FB00FB0000070
:1047100006EC106F79D300000000FB0000FB0000E6
:10472000FB0000FB0000FB0000FB0000FB000000A2
:10473000FB0FB0B80B8000000000FB0000FB000086
:10474000FB0000FB0000FB0000FB0000FB00000082
:1047500006DB57A716DFFF934D969F9006DFDEF42A
:104760006FD77DFADD1001EFFB0000BFDE1001EB1B
:104770005FE88EF404AFFA301DB010075DF200025E
:1047800030F8BFB3FFA9FBFC00CFFB00BFFB00BFAD
:10479000FB00BFFB00BF00000010000001E920008B
:1047A000006BF7000000330004AFFA405FE88EF5BD
:1047B000CE1001ECFB0000BFCE1001EC5FE88EF5DF
:1047C00004AFFA400000010000039E10008FA50016
:1047D0000032000004AFFA405FE88EF5CE1001EC25
:1047E000FB0000BFCE1001EC5FE88EF504AFFA408D
:1047F000004EE50007F77F700000000004AFFA40AC
:104800005FE88EF5CE1001ECFB0000BFCE1001EC8E
:104810005FE88EF504AFFA4007F900100455CF8029
:104820000000140004AFFA405FE88EF5CE1001ECF2
:10483000FB0000BFCE1001EC5FE88EF504AFFA403C
:1048400000FB0BF000B808B00000000004AFFA4015
:104850005FF97DF5CE3001ECFB0000BFCE2001ED0D
:104860005FE88EF5039DFC5000BF0000008B000048
:104870000000000077777740FFFFFF700000000026
:10488000008B000000BF00000000003404AFFAF706
:104890005FE8AFF5CE11CCECFB1CC1BFDECE11EC56
:1048A0005FFA8EF57FBFFA40430000000200001F50
:1048B000A10002BC00000200FB00BFFB00BFFB0028
:1048C000BFFB00BFFC00CFBF9AFF3BFB8F00000087
:1048D000000040003BE100E920001000FB00BFFBAE
:1048E00000BFFB00BFFB00BFFC00CFBF9AFF3BFB3C
:1048F0008F00000001CE302C99E3000000FB00BFC8
:10490000FB00BFFB00BFFB00BFFC00CFBF9AFF3B1B
:10491000FB8F00000FBBF00B88B0000000FB00BF56
:10492000FB00BFFB00BFFB00BFFC00CFBF9AFF3BFB
:10493000FB8F0000000013000007E900008D6000FD
:1049400000100000CE001FB07F506F601FA0CE008F
:1049500009F3F80004FCF20000DFB000007F600003
:1049600000BE100002F9000004720000FB0000000D
:10497000FB000000FB000000FC9FD600FFC7DF50DB
:10498000FD001DC0F9000BF0FD001DD0FFC7DF507A
:10499000FC9ED600FB000000FB000000430000006E
:1049A00000FB0BF00000B808B00000000000002F72
:1049B000B000AF200AF202F90004F908F40000DFA9
:1049C0001EC000007FCF6000001FFD0000000AF73E
:1049D0000000000EF10000006F9000000067200052
:1049E00000000000FBFBFBFBFBFBFB000FF0000FDC
:1049F000F0000FF2500FFE700FFE30AFF100FFF02D
:104A0000006FF0000FF7770FFFFF00000FB00FB03F
:104A10000FB10FE72FF7BFC08FB00FB00FB00FB0BF
:104A2000006AEFB6BFFFF409FE87DFFF77726FC140
:104A30000009FF0000CF300001EF0000FF00000080
:104A4000BFFFF0FF000000BF7770BF400001FF0014
:104A5000005FD1000AFF000009FE87DFFF777200C8
:104A60005AEFB5BFFFF4000004BFD707DFC5005FF2
:104A7000E88ECFA7BF40CE2003EF000DC0FB0000A3
:104A8000BFFFFFF0DD1001DF6445725FE88ECFD716
:104A90007DB105CFC707CFA4000000002CB6CC2005
:104AA00001BF910017CFC7009FB7CF70FF001B80D9
:104AB000DF7200006FFFC500028DFF6000004EC076
:104AC000DE100DE08FD7BF8007DFD71019E77E70AB
:104AD000006FE5000000000003AEE9100DD56FA0E7
:104AE0000EE7300003AFFE6014205DF00EE66ED0DE
:104AF00003AEEA3000FBBF0000B88B008F7006FAEF
:104B00002FD00BF409F42FB004F98F6000BFED0033
:104B1000005FF600000FF100000FF000000FF00042
:104B2000000FF0004E99E403ED30FFFFFF777AFDB0
:104B3000000BF6004FD000BF6004FD000BF6004FE5
:104B4000D000BFB777FFFFFF7F7CC206FA100000DE
:104B500000FFFFF0445ED0009F4005F7001EC0003C
:104B6000BF7441FFFFF4000000007E700004FC20D1
:104B70000008F200000BF00000FFFF00004FA4004F
:104B8000004F7000006F4000008F200000BE00004A
:104B900001EB00006BF60000DD70000006FB107EEC
:104BA0005CC100007E7CA106F9000000FFFF70449C
:104BB000442000007504706EFF7001410000000089
:104BC000BF8B00006B60B0B0B0B06B603500E5002B
:104BD000AF700000AE3010548FB000031000000022
:104BE0000861B39E7CD4630710000000002AFFA276
:104BF0000001EE88EE1009F4004F900DD0000DD0AA
:104C00000FB0000BF00EB0000BE00AC0000C9004D7
:104C1000F2002F4014BA00BA414FFF44FFF40000E5
:104C2000FB00BFFB00BFFB00BFFB00BFFC00DFFFC2
:104C30009AEFFDDB8FFB0000FB000043000000004B
:104C40006EFFFFFFF147FD77DF7000F700BF000444
:104C5000F700BF0005F500BF0007F300BF000BE041
:104C6000008F2000FFF77774FFFFF777777400005D
:104C7000FFFFFFFFFFFB777777777776C9006E003E
:104C80000A4000002F408C00950000002B407D0062
:104C9000D7000000C9B9006E6E100A4A400000003B
:104CA0002F6F408C7D009595000000002B5B407DB0
:104CB0007D00D7C70000000000BF0000BF0000BF9C
:104CC00000BFFFFF67DF7700BF0000BF0000BF002D
:104CD00000BF0000BF0000BF0000BF0000BF000019
:104CE00000BF0000BF0000BF00BFFFFF67DF77000D
:104CF000BF0000BF0000BF0067DF77BFFFFF00BF3E
:104D00000000BF0000BF00006FB1FFF6BFF3174007
:104D1000B8008B0008B0FB00BF000BF03DFD307BFE
:104D200000000000C949C0D500000000F404F6D01E
:104D300000000000D808DB60000000004EFE7E107E
:104D40000000000000209800000000000002F26E49
:104D5000D406ED40000791F57E1F57E0000E41F5A7
:104D60007E1F57E0006C006EE406ED400A406D00C7
:104D7000C50079001E40000095006D000C502E10FB
:104D8000B70000000003F40009C0001E60006E10B0
:104D900000C90003F30009B0001E60006E0000D8D7
:104DA000000000000007DEA3007FB7DC00CE101774
:104DB00000FB00010DFFFFE014FC44300DFFFF403D
:104DC00014ED4401008FA7C40007DFA201AFD50096
:104DD00009F57C000EB01F000FB07A000FB6F4008A
:104DE0000FEF60002FE30000DFB000301CF74AB087
:104DF00003AFD9104FFFB4F900CF00F404FD13FF47
:104E000000F404F9689F00F404F5CE5F00F404F0A8
:104E1000DA4F007202705427002AFFA20001EE88C8
:104E2000EE1009F4004F900DD0000DD00FB0000B24
:104E3000F00EB0000BE00AC0000C9004F2002F400E
:104E400014BA00BA414FFF44FFF400000026444664
:104E500020000670000066004F0000000F40AF0009
:104E600000000FA0FF0000000FF0FF444444444046
:104E7000BF00000000004F000000000006600000BE
:104E800066000046544630004CFFA2006A78FE10CF
:104E900000005F8000000CC007DD8CF08FA4AFF035
:104EA000EC000FD0FC005F809F87EE1019FFA2007E
:104EB000001FF50000006FE9000000ADAE0000012A
:104EC000F86F600007F52FA0000CD00AF1002F80CA
:104ED00006F6007F3001FA00CE4444CF10FFFFFFFA
:104EE000FF4000007FFFFFFFF747FD77DF7400FB07
:104EF00000BF0000FB00BF0000FB00BF0000FB0084
:104F0000BF0000FB00BF0000FB00BF0000FB00BFB4
:104F10000000FB00BF0000B8008B0000BFFFFFB027
:104F20009FC777601EE2000005FB000000AF700025
:104F3000001EE100001EA00000AE100005F70000FA
:104F40001EB00000AF977770FFFFFFF077777720F4
:104F5000FFFFFF400003F40009C0001E60006E1058
:104F600000C90003F30009B0001E60006E0000D805
:104F700000000000B8FB000000000089000000C62F
:104F8000000001F2000004D0000007A001100B7027
:104F90009F800F3049D04E0003F37B0000D8A7005C
:104FA000008DD400003FF000000DC0004DF807EE6A
:104FB00040D309D903E0E307D903D04DE707ED302B
:104FC000003DE000AD4000F70000F70000F70000F2
:104FD000F70000F70000F70000F70000F70000F707
:104FE0000037F300AF8000006EE709407118F80049
:104FF0006ED406309129FA000000500000067000BF
:10500000FFFFFF40003A000000960000FFFFFF4056
:1050100006700000042000000000040004BD04BB72
:1050200060BB4000BB400004BD600004BD00000444
:10503000FFFFFF004000009D600004BD400004BB76
:105040000004BB06DB40DB4000400000FFFFFF0028
:10505000007F400001ECB00007D4F4001E60BB00EC
:105060007E004F30D9000E807E004F201E60B900B8
:1050700007D3F20002FCB000009F400003CBBF0D3D
:10508000D3670FB000BFFFFF3FC4CF0FB0BF0FB05B
:10509000BF0FB0BF0FB0BF0FB0BF000003CBBF0D3D
:1050A000D3BF0FB0BFBFFFFF3FC4CF0FB0BF0FB024
:1050B000BF0FB0BF0FB0BF0FB0BF0000FCBBBCF054
:1050C000D90009D0B77077B0B0A6A0B0B02F20B08B
:1050D000B0A6A0B0B77077B0D90009D0FCBBBCF0C7
:1050E0000101000D04000000382F0008020A01032E
:1050F000040000003C2F0008030401030600000028
:10510000482F00080709000408000000502F00087D
:10511000060C010208000000742F00080A0A0003B0
:105120000B000000982F0008090A01030A00000084
:10513000CC2F000802040103030000000030000827
:10514000050D01030600000004300008050D0003F2
:10515000060000002C3000080506020308000000CD
:1051600054300008070601070800000068300008F6
:105170000303000B04000000803000080402000854
:1051800004000000883000080202010B0400000047
:105190008C300008060B0103070000009030000867
:1051A000070A000308000000B4300008040A0103E5
:1051B00008000000DC300008060A010308000000B7
:1051C000F0300008070A0003080000001031000852
:1051D000070A00030800000038310008070A00032E
:1051E0000800000060310008070A00030800000002
:1051F00088310008060A010308000000B0310008E9
:10520000070A000308000000D0310008070A000365
:1052100008000000F8310008020701060400000041
:1052200020320008030800060400000028320008AD
:1052300007070106080000003832000807050107CB
:1052400008000000543200080707010608000000AB
:1052500068320008070A00030800000084320008D2
:10526000090A00030A000000AC3200080A0A000321
:105270000A000000E0320008070A010308000000ED
:10528000143300080A0A00030B0000003C33000836
:10529000080A01030A00000070330008060A01032F
:1052A0000700000098330008050A0103060000000B
:1052B000B83300080A0A00030B000000D8330008C6
:1052C000070A0103090000000C340008020A010368
:1052D0000400000034340008060A00030700000040
:1052E00040340008080A0103090000006034000887
:1052F000050A010306000000883400080A0A0103B9
:105300000C000000A8340008080A01030A0000008D
:10531000DC3400080A0A00030B0000000435000812
:10532000070A010308000000383500080A0A0103D3
:105330000B00000060350008070A010308000000A8
:1053400094350008070A000307000000BC35000878
:10535000060A000306000000E4350008070A0103FE
:105360000900000004360008090A000309000000D3
:105370002C3600080C0A00030C0000006036000800
:10538000090A0003090000009C360008080A00030F
:1053900008000000D0360008060A000306000000DE
:1053A000F8360008040D0103060000001837000855
:1053B000060B01030700000034370008040D010349
:1053C0000600000058370008060501030800000029
:1053D000743700080701000E07000000843700083A
:1053E00004030102070000008837000808070006D0
:1053F0000900000090370008070A010309000000B7
:10540000AC3700080807000608000000D437000881
:10541000080A000309000000F0370008080700062A
:105420000800000018380008040A00030400000007
:1054300034380008080A000609000000483800084F
:10544000060A01030800000070380008020A010380
:105450000300000090380008030D00030400000062
:105460009C380008060A010307000000B83800084D
:10547000020A010303000000D83800080B070106E8
:105480000D000000E43800080607010608000000CF
:105490001039000808070006090000002839000834
:1054A000070A01060900000044390008080A00063E
:1054B000090000006C39000804070106050000001F
:1054C000943900080707FF0606000000A439000809
:1054D000050AFF0304000000C039000806070106A2
:1054E00008000000E0390008070700060700000078
:1054F000F83900080B0700060B000000143A0008FA
:105500000807000607000000403A0008070A0006E6
:10551000070000005C3A00080507000606000000CE
:10552000843A0008050D0103070000009C3A0008BA
:10553000020D030307000000C43A0008050D000334
:1055400007000000D43A0008060301080800000024
:10555000FC3A00080101000D04000000083B0008AF
:10556000020A0106040000000C3B000806090104C1
:1055700008000000183B0008090AFF0308000000AB
:10558000343B00080908FF0508000000683B0008DC
:10559000080A000308000000903B0008020B030407
:1055A00007000000B83B0008070D000308000000DA
:1055B000C43B00080502010307000000F83B000897
:1055C0000A0A00030A000000003C0008040400036B
:1055D00005000000343C0008050500070500000038
:1055E0003C3C000807040007080000004C3C000891
:1055F00004020008040000005C3C00080A0A0003E2
:105600000A000000603C00080502010407000000D9
:10561000943C000803040104050000009C3C0008C1
:105620000708010608000000A43C00080406000367
:1056300005000000C43C00080506FF03050000004B
:10564000D03C00080403020207000000E43C00080C
:10565000060A010608000000EC3C0008070B0003E6
:10566000090000000C3D00080202010904000000CE
:10567000383D00080304020C070000003C3D000810
:105680000306010305000000443D00080504000373
:1056900005000000503D000805050007050000005A
:1056A0005C3D0008090A01030B0000006C3D000886
:1056B000090A01030B000000A03D00080C0A0003CA
:1056C0000C000000D43D0008060A01060800000096
:1056D000103E00080A0D00000A000000303E0008DD
:1056E0000A0D00000A000000743E00080A0C0001C8
:1056F0000A000000B83E00080A0C00010A00000081
:10570000F43E00080B0CFF010A000000303F0008C7
:10571000090D00000A000000783F00080D0AFF0391
:105720000D000000BC3F00080B0D00030B00000043
:1057300004400008060D0100070000005440000866
:10574000060D0100070000007C400008070C000166
:1057500007000000A4400008060C0101070000003B
:10576000D4400008050DFF0004000000F8400008C8
:10577000050D00000400000020410008060CFF0198
:105780000400000048410008050CFF01040000006F
:105790006C410008090A00030A000000904100085B
:1057A000080C01010A000000C44100080A0D0000B5
:1057B0000B000000F44100080A0D00000B0000007F
:1057C000384200080A0C00010B0000007C4200086F
:1057D0000A0C00010B000000B84200080A0C00018E
:1057E0000B000000F4420008070701060800000053
:1057F000304300080A0C00020B0000004C43000874
:10580000070D01000900000088430008070D010092
:1058100009000000BC430008070C0101090000005A
:10582000F0430008070C01010900000020440008B3
:10583000080D00000800000050440008070A01039A
:105840000800000084440008070A01030900000062
:10585000AC440008080B000209000000D444000812
:10586000080B00020900000000450008080A0003B8
:10587000090000002C450008080A00030900000088
:1058800054450008080A0003090000007C45000890
:10589000080B000209000000A44500080E070006DE
:1058A0000E000000D0450008080A000608000000AD
:1058B00004460008080B0002080000002C460008FF
:1058C000080B00020800000058460008080A000300
:1058D0000800000084460008080A000308000000D1
:1058E000AC460008050BFF0203000000D446000888
:1058F000040B000203000000F8460008060AFF033C
:105900000300000010470008050AFF030300000021
:1059100030470008080A000309000000504700084B
:10592000060A01030800000078470008080B00027F
:105930000900000098470008080B00020900000059
:10594000C4470008080A000309000000F0470008E7
:10595000080A00030900000018480008080A0003AC
:105960000900000040480008070801060800000080
:105970006848000808090005090000008848000878
:10598000060B010208000000AC480008060B0102EB
:1059900008000000D0480008060A010308000000C3
:1059A000F4480008060A0103080000001449000832
:1059B000070E00020700000034490008070D01032C
:1059C000090000006C490008090DFF0307000000F2
:1059D000A04900080207010603000000E44900088E
:1059E000060A000306000000EC490008040A000350
:1059F000040000000C4A00080E0A00030E0000001C
:105A0000204A00080E0700060E000000684A000841
:105A1000070C0001070000009C4A0008070AFF036A
:105A200006000000CC4A0008080C00010800000035
:105A3000F44A0008060C000106000000244B000890
:105A4000060A000306000000484B0008070D00038B
:105A500008000000684B0008060201030700000070
:105A60009C4B00080602010307000000A44B00083D
:105A70000502010407000000AC4B00080503010308
:105A800007000000B44B00080202030307000000F7
:105A9000C04B00080304020207000000C44B0008CA
:105AA0000303020D07000000CC4B000805030103AF
:105AB00007000000D44B00080603010207000000A5
:105AC000E04B00080A0A00030A000000EC4B000843
:105AD000060A010608000000204C00080A07FF061D
